8=FIX.4.4|9=67|35=A|34=1|49=MARKET|52=20250314-00:01:30.971|56=BLZ001|98=0|108=30|10=054|8=FIX.4.4|9=67|35=A|34=2|49=MARKET|52=20250314-00:06:05.252|56=BLZ001|98=0|108=30|10=054|8=FIX.4.4|9=64|35=2|34=3|49=MARKET|52=20250314-00:06:05.258|56=BLZ001|7=2|16=0|10=142|8=FIX.4.4|9=67|35=A|34=4|49=MARKET|52=20250314-00:31:43.067|56=BLZ001|98=0|108=30|10=060|8=FIX.4.4|9=64|35=2|34=5|49=MARKET|52=20250314-00:31:43.072|56=BLZ001|7=5|16=0|10=141|8=FIX.4.4|9=67|35=A|34=6|49=MARKET|52=20250314-00:33:51.711|56=BLZ001|98=0|108=30|10=059|8=FIX.4.4|9=64|35=2|34=7|49=MARKET|52=20250314-00:33:51.718|56=BLZ001|7=5|16=0|10=151|8=FIX.4.4|9=67|35=A|34=8|49=MARKET|52=20250314-00:38:17.758|56=BLZ001|98=0|108=30|10=079|8=FIX.4.4|9=64|35=2|34=9|49=MARKET|52=20250314-00:38:17.764|56=BLZ001|7=5|16=0|10=161|8=FIX.4.4|9=113|35=j|34=10|49=MARKET|52=20250314-00:38:30.946|56=BLZ001|45=5|58=Conditionally Required Field Missing|372=D|380=5|10=021|8=FIX.4.4|9=68|35=A|34=11|49=MARKET|52=20250314-00:41:04.353|56=BLZ001|98=0|108=30|10=103|8=FIX.4.4|9=66|35=2|34=12|49=MARKET|52=20250314-00:41:04.358|56=BLZ001|7=10|16=0|10=238|8=FIX.4.4|9=68|35=A|34=13|49=MARKET|52=20250314-00:42:04.893|56=BLZ001|98=0|108=30|10=115|8=FIX.4.4|9=66|35=2|34=14|49=MARKET|52=20250314-00:42:04.898|56=BLZ001|7=12|16=0|10=252|8=FIX.4.4|9=68|35=A|34=15|49=MARKET|52=20250314-00:42:52.052|56=BLZ001|98=0|108=30|10=107|8=FIX.4.4|9=66|35=2|34=16|49=MARKET|52=20250314-00:42:52.057|56=BLZ001|7=12|16=0|10=244|8=FIX.4.4|9=68|35=A|34=17|49=MARKET|52=20250314-00:43:34.360|56=BLZ001|98=0|108=30|10=112|8=FIX.4.4|9=66|35=2|34=18|49=MARKET|52=20250314-00:43:34.366|56=BLZ001|7=12|16=0|10=250|8=FIX.4.4|9=68|35=A|34=19|49=MARKET|52=20250314-00:44:39.759|56=BLZ001|98=0|108=30|10=132|8=FIX.4.4|9=66|35=2|34=20|49=MARKET|52=20250314-00:44:39.764|56=BLZ001|7=12|16=0|10=251|8=FIX.4.4|9=68|35=A|34=21|49=MARKET|52=20250314-00:45:22.472|56=BLZ001|98=0|108=30|10=110|8=FIX.4.4|9=56|35=0|34=22|49=MARKET|52=20250314-00:45:55.166|56=BLZ001|10=072|8=FIX.4.4|9=68|35=A|34=23|49=MARKET|52=20250314-00:48:24.000|56=BLZ001|98=0|108=30|10=104|8=FIX.4.4|9=66|35=2|34=24|49=MARKET|52=20250314-00:48:24.005|56=BLZ001|7=24|16=0|10=244|8=FIX.4.4|9=68|35=A|34=25|49=MARKET|52=20250314-10:06:53.059|56=BLZ001|98=0|108=30|10=117|8=FIX.4.4|9=66|35=2|34=26|49=MARKET|52=20250314-10:06:53.066|56=BLZ001|7=24|16=0|10=250|8=FIX.4.4|9=56|35=0|34=27|49=MARKET|52=20250314-10:07:23.312|56=BLZ001|10=064|8=FIX.4.4|9=68|35=A|34=28|49=MARKET|52=20250314-10:11:42.338|56=BLZ001|98=0|108=30|10=114|8=FIX.4.4|9=66|35=2|34=29|49=MARKET|52=20250314-10:11:42.345|56=BLZ001|7=29|16=0|10=252|8=FIX.4.4|9=68|35=A|34=30|49=MARKET|52=20250314-10:21:28.456|56=BLZ001|98=0|108=30|10=113|8=FIX.4.4|9=66|35=2|34=31|49=MARKET|52=20250314-10:21:28.461|56=BLZ001|7=31|16=0|10=242|8=FIX.4.4|9=65|35=1|34=32|49=MARKET|52=20250314-10:22:06.456|56=BLZ001|112=TEST|10=086|8=FIX.4.4|9=65|35=0|34=33|49=MARKET|52=20250314-10:22:07.267|56=BLZ001|112=TEST|10=087|8=FIX.4.4|9=56|35=0|34=34|49=MARKET|52=20250314-10:22:37.496|56=BLZ001|10=077|8=FIX.4.4|9=56|35=0|34=35|49=MARKET|52=20250314-10:23:07.831|56=BLZ001|10=069|8=FIX.4.4|9=56|35=0|34=36|49=MARKET|52=20250314-10:23:38.122|56=BLZ001|10=067|8=FIX.4.4|9=56|35=0|34=37|49=MARKET|52=20250314-10:24:08.350|56=BLZ001|10=069|8=FIX.4.4|9=56|35=0|34=38|49=MARKET|52=20250314-10:24:38.643|56=BLZ001|10=078|8=FIX.4.4|9=56|35=0|34=39|49=MARKET|52=20250314-10:25:08.920|56=BLZ001|10=075|8=FIX.4.4|9=56|35=0|34=40|49=MARKET|52=20250314-10:25:39.154|56=BLZ001|10=070|8=FIX.4.4|9=56|35=0|34=41|49=MARKET|52=20250314-10:26:09.404|56=BLZ001|10=067|8=FIX.4.4|9=56|35=0|34=42|49=MARKET|52=20250314-10:26:39.672|56=BLZ001|10=078|8=FIX.4.4|9=68|35=A|34=43|49=MARKET|52=20250314-10:49:43.314|56=BLZ001|98=0|108=30|10=117|8=FIX.4.4|9=56|35=0|34=44|49=MARKET|52=20250314-10:50:13.606|56=BLZ001|10=066|8=FIX.4.4|9=68|35=A|34=45|49=MARKET|52=20250314-10:50:30.070|56=BLZ001|98=0|108=30|10=106|8=FIX.4.4|9=176|35=8|34=46|49=MARKET|52=20250314-10:50:45.592|56=BLZ001|6=0|14=0|17=d803220d-50cc-4629-a56b-b06bbfcda62b|37=c55026a6-9c22-4c6f-a64d-c12b2677928d|39=0|54=1|55=PETR4|150=8|151=1|10=252|8=FIX.4.4|9=56|35=0|34=47|49=MARKET|52=20250314-10:51:26.212|56=BLZ001|10=067|8=FIX.4.4|9=65|35=0|34=48|49=MARKET|52=20250314-10:51:26.213|56=BLZ001|112=TEST|10=087|8=FIX.4.4|9=176|35=8|34=49|49=MARKET|52=20250314-10:51:37.258|56=BLZ001|6=0|14=0|17=c3743a39-1524-4b39-9d8a-56149520aa45|37=0626211a-b059-4a60-9d5c-e1b802830f63|39=0|54=1|55=PETR4|150=8|151=1|10=083|8=FIX.4.4|9=56|35=0|34=50|49=MARKET|52=20250314-10:52:07.508|56=BLZ001|10=069|8=FIX.4.4|9=56|35=0|34=51|49=MARKET|52=20250314-10:52:37.772|56=BLZ001|10=076|8=FIX.4.4|9=176|35=8|34=52|49=MARKET|52=20250314-10:52:48.720|56=BLZ001|6=0|14=0|17=2e5279f1-1f26-491d-927a-ed9c7138421c|37=1a45e3bf-1fad-4c5c-b1ca-44800970d79c|39=0|54=1|55=PETR4|150=8|151=1|10=218|8=FIX.4.4|9=68|35=A|34=53|49=MARKET|52=20250314-11:56:54.494|56=BLZ001|98=0|108=30|10=128|8=FIX.4.4|9=68|35=A|34=54|49=MARKET|52=20250314-11:59:04.329|56=BLZ001|98=0|108=30|10=124|8=FIX.4.4|9=68|35=A|34=55|49=MARKET|52=20250314-12:01:16.214|56=BLZ001|98=0|108=30|10=109|8=FIX.4.4|9=56|35=0|34=56|49=MARKET|52=20250314-12:01:46.441|56=BLZ001|10=070|8=FIX.4.4|9=68|35=A|34=57|49=MARKET|52=20250314-12:03:02.118|56=BLZ001|98=0|108=30|10=111|8=FIX.4.4|9=68|35=A|34=58|49=MARKET|52=20250314-12:04:03.213|56=BLZ001|98=0|108=30|10=110|8=FIX.4.4|9=56|35=0|34=59|49=MARKET|52=20250314-12:04:33.415|56=BLZ001|10=073|8=FIX.4.4|9=68|35=A|34=60|49=MARKET|52=20250314-12:05:09.594|56=BLZ001|98=0|108=30|10=122|8=FIX.4.4|9=114|35=3|34=61|49=MARKET|52=20250314-12:05:21.740|56=BLZ001|45=65|58=Tag specified without a value|371=55|372=D|373=4|10=118|8=FIX.4.4|9=65|35=1|34=62|49=MARKET|52=20250314-12:05:45.936|56=BLZ001|112=TEST|10=098|8=FIX.4.4|9=56|35=0|34=63|49=MARKET|52=20250314-12:06:16.170|56=BLZ001|10=069|8=FIX.4.4|9=56|35=0|34=64|49=MARKET|52=20250314-12:06:46.379|56=BLZ001|10=084|8=FIX.4.4|9=56|35=0|34=65|49=MARKET|52=20250314-12:07:16.639|56=BLZ001|10=082|8=FIX.4.4|9=56|35=0|34=66|49=MARKET|52=20250314-12:07:46.892|56=BLZ001|10=087|8=FIX.4.4|9=68|35=A|34=67|49=MARKET|52=20250314-12:08:46.404|56=BLZ001|98=0|108=30|10=123|8=FIX.4.4|9=114|35=3|34=68|49=MARKET|52=20250314-12:08:58.372|56=BLZ001|45=72|58=Tag specified without a value|371=55|372=D|373=4|10=137|8=FIX.4.4|9=65|35=1|34=69|49=MARKET|52=20250314-12:09:22.559|56=BLZ001|112=TEST|10=105|8=FIX.4.4|9=68|35=A|34=70|49=MARKET|52=20250314-12:09:29.826|56=BLZ001|98=0|108=30|10=127|8=FIX.4.4|9=114|35=3|34=71|49=MARKET|52=20250314-12:09:40.803|56=BLZ001|45=75|58=Tag specified without a value|371=55|372=D|373=4|10=125|8=FIX.4.4|9=68|35=A|34=72|49=MARKET|52=20250314-12:10:17.619|56=BLZ001|98=0|108=30|10=118|8=FIX.4.4|9=56|35=0|34=73|49=MARKET|52=20250314-12:10:47.887|56=BLZ001|10=084|8=FIX.4.4|9=68|35=A|34=74|49=MARKET|52=20250314-12:11:21.770|56=BLZ001|98=0|108=30|10=114|8=FIX.4.4|9=56|35=0|34=75|49=MARKET|52=20250314-12:11:51.984|56=BLZ001|10=080|8=FIX.4.4|9=68|35=A|34=76|49=MARKET|52=20250314-12:12:01.599|56=BLZ001|98=0|108=30|10=124|8=FIX.4.4|9=56|35=0|34=77|49=MARKET|52=20250314-12:12:31.827|56=BLZ001|10=077|8=FIX.4.4|9=107|35=5|34=78|49=MARKET|52=20250314-12:13:38.469|56=BLZ001|58=MsgSeqNum too low, expecting 81 but received 27|10=144|8=FIX.4.4|9=107|35=5|34=79|49=MARKET|52=20250314-12:14:30.399|56=BLZ001|58=MsgSeqNum too low, expecting 81 but received 29|10=142|8=FIX.4.4|9=107|35=5|34=80|49=MARKET|52=20250314-12:15:39.739|56=BLZ001|58=MsgSeqNum too low, expecting 81 but received 31|10=135|8=FIX.4.4|9=107|35=5|34=81|49=MARKET|52=20250314-12:16:09.930|56=BLZ001|58=MsgSeqNum too low, expecting 81 but received 33|10=129|8=FIX.4.4|9=107|35=5|34=82|49=MARKET|52=20250314-12:16:40.200|56=BLZ001|58=MsgSeqNum too low, expecting 81 but received 35|10=117|8=FIX.4.4|9=107|35=5|34=83|49=MARKET|52=20250314-12:17:03.311|56=BLZ001|58=MsgSeqNum too low, expecting 81 but received 37|10=123|8=FIX.4.4|9=107|35=5|34=84|49=MARKET|52=20250314-12:21:33.443|56=BLZ001|58=MsgSeqNum too low, expecting 81 but received 39|10=130|8=FIX.4.4|9=107|35=5|34=85|49=MARKET|52=20250314-12:22:15.177|56=BLZ001|58=MsgSeqNum too low, expecting 81 but received 41|10=129|8=FIX.4.4|9=107|35=5|34=86|49=MARKET|52=20250314-12:22:45.416|56=BLZ001|58=MsgSeqNum too low, expecting 81 but received 43|10=131|8=FIX.4.4|9=107|35=5|34=87|49=MARKET|52=20250314-12:32:25.244|56=BLZ001|58=MsgSeqNum too low, expecting 81 but received 48|10=135|8=FIX.4.4|9=107|35=5|34=88|49=MARKET|52=20250314-12:52:34.356|56=BLZ001|58=MsgSeqNum too low, expecting 81 but received 54|10=139|8=FIX.4.4|9=107|35=5|34=89|49=MARKET|52=20250314-12:53:04.531|56=BLZ001|58=MsgSeqNum too low, expecting 81 but received 56|10=135|8=FIX.4.4|9=107|35=5|34=90|49=MARKET|52=20250314-12:53:19.278|56=BLZ001|58=MsgSeqNum too low, expecting 81 but received 58|10=143|8=FIX.4.4|9=107|35=5|34=91|49=MARKET|52=20250314-12:53:49.468|56=BLZ001|58=MsgSeqNum too low, expecting 81 but received 60|10=141|8=FIX.4.4|9=68|35=A|34=92|49=MARKET|52=20250314-12:59:17.453|56=BLZ001|98=0|108=30|10=129|8=FIX.4.4|9=66|35=2|34=93|49=MARKET|52=20250314-12:59:17.458|56=BLZ001|7=81|16=0|10=016|8=FIX.4.4|9=65|35=1|34=94|49=MARKET|52=20250314-13:00:00.373|56=BLZ001|112=TEST|10=085|8=FIX.4.4|9=65|35=0|34=95|49=MARKET|52=20250314-13:00:00.388|56=BLZ001|112=TEST|10=091|8=FIX.4.4|9=68|35=A|34=96|49=MARKET|52=20250314-13:00:23.466|56=BLZ001|98=0|108=30|10=121|8=FIX.4.4|9=176|35=8|34=97|49=MARKET|52=20250314-13:00:34.528|56=BLZ001|6=0|14=0|17=f5ef7e6d-23e2-44c6-b564-9c6d099235cf|37=5273ee00-e6d1-4b9e-b120-7665db07c74d|39=0|54=1|55=PETR4|150=8|151=1|10=241|8=FIX.4.4|9=68|35=A|34=98|49=MARKET|52=20250314-13:18:42.117|56=BLZ001|98=0|108=30|10=126|8=FIX.4.4|9=176|35=8|34=99|49=MARKET|52=20250314-13:18:55.026|56=BLZ001|6=0|14=0|17=3ebd57ae-0435-419b-b5ed-f2b8a73850fe|37=0bcbb1fc-5cd6-4f84-ad5c-d3d11db364ba|39=0|54=1|55=PETR4|150=8|151=1|10=132|8=FIX.4.4|9=57|35=0|34=100|49=MARKET|52=20250314-13:19:25.541|56=BLZ001|10=117|8=FIX.4.4|9=69|35=A|34=101|49=MARKET|52=20250314-13:26:14.879|56=BLZ001|98=0|108=30|10=173|8=FIX.4.4|9=177|35=8|34=102|49=MARKET|52=20250314-13:26:26.107|56=BLZ001|6=0|14=0|17=5077b741-4022-48a9-85b4-ef032243b6c5|37=ff26b2fd-3b3d-47c3-98d6-10bbfd9a020e|39=0|54=1|55=VALE3|150=8|151=1|10=184|8=FIX.4.4|9=69|35=A|34=103|49=MARKET|52=20250314-13:26:59.712|56=BLZ001|98=0|108=30|10=170|8=FIX.4.4|9=57|35=0|34=104|49=MARKET|52=20250314-13:27:36.866|56=BLZ001|10=132|8=FIX.4.4|9=177|35=8|34=105|49=MARKET|52=20250314-13:27:38.216|56=BLZ001|6=0|14=0|17=3bf83f56-6040-4144-a77f-e2c474134c40|37=c97b5546-c1d1-4b17-83b6-291f44942d06|39=0|54=1|55=PETR4|150=8|151=1|10=192|8=FIX.4.4|9=177|35=8|34=106|49=MARKET|52=20250314-13:27:47.499|56=BLZ001|6=0|14=0|17=a8fb7148-e909-4d7a-926f-9ae69a4d17fe|37=c4af3f09-82b9-483a-b520-163ccd4c332e|39=0|54=1|55=PETR4|150=8|151=1|10=144|8=FIX.4.4|9=177|35=8|34=107|49=MARKET|52=20250314-13:27:48.653|56=BLZ001|6=0|14=0|17=d346312f-00a1-4e1a-8fae-be1f8e56b0dc|37=3828e462-cb0d-4dda-8533-99586d6b31ac|39=0|54=1|55=PETR4|150=8|151=1|10=156|8=FIX.4.4|9=177|35=8|34=108|49=MARKET|52=20250314-13:27:53.077|56=BLZ001|6=0|14=0|17=f1feb4fc-4faa-4c7d-a480-bd00051f6755|37=87ad7c73-0b8c-4867-af64-cf4375162304|39=0|54=1|55=PETR4|150=8|151=1|10=068|8=FIX.4.4|9=177|35=8|34=109|49=MARKET|52=20250314-13:27:54.377|56=BLZ001|6=0|14=0|17=eb55ffcf-4ca5-442e-89fe-b012c4d9954a|37=be9e8c24-8e04-434a-b94a-252ea2cad4c0|39=0|54=1|55=PETR4|150=8|151=1|10=054|8=FIX.4.4|9=177|35=8|34=110|49=MARKET|52=20250314-13:27:59.591|56=BLZ001|6=0|14=0|17=a6305cfb-8ac4-4efb-bd60-012d96b6f5e9|37=af41a496-0113-4d47-b56b-45899d106d69|39=0|54=1|55=PETR4|150=8|151=1|10=026|8=FIX.4.4|9=177|35=8|34=111|49=MARKET|52=20250314-13:28:00.427|56=BLZ001|6=0|14=0|17=2ad128a6-6d78-47ce-aea4-492f25df491b|37=e410e663-bcc6-4330-a19a-b28d9db78760|39=0|54=1|55=PETR4|150=8|151=1|10=057|8=FIX.4.4|9=177|35=8|34=112|49=MARKET|52=20250314-13:28:01.622|56=BLZ001|6=0|14=0|17=5db96e49-749f-4264-b92e-a71b6443a8fe|37=85068934-2543-4140-bfef-e27bbe18e115|39=0|54=1|55=PETR4|150=8|151=1|10=142|8=FIX.4.4|9=177|35=8|34=113|49=MARKET|52=20250314-13:28:08.278|56=BLZ001|6=0|14=0|17=fbe5291c-c697-47d6-b590-c14d67d8026e|37=4610daa5-6c97-4dbe-a4fa-2c2c46db60f2|39=0|54=1|55=PETR4|150=8|151=1|10=167|8=FIX.4.4|9=57|35=0|34=114|49=MARKET|52=20250314-13:28:38.488|56=BLZ001|10=136|8=FIX.4.4|9=177|35=8|34=115|49=MARKET|52=20250314-13:29:02.905|56=BLZ001|6=0|14=0|17=cafb9a4e-4071-41b0-8b6d-536d546b07d3|37=12c6f427-f752-4735-a649-f62f9c6f13b6|39=0|54=1|55=PETR4|150=8|151=1|10=183|8=FIX.4.4|9=177|35=8|34=116|49=MARKET|52=20250314-13:29:05.347|56=BLZ001|6=0|14=0|17=aabdbc6f-6c27-4f68-a12c-6c4be8654db9|37=cd3f49cd-482c-48e1-b803-4739a408b3b9|39=0|54=1|55=PETR4|150=8|151=1|10=222|8=FIX.4.4|9=177|35=8|34=117|49=MARKET|52=20250314-13:29:08.128|56=BLZ001|6=0|14=0|17=d9c6884e-16f1-439d-811e-e0439ba59129|37=50fce359-fcd5-49ee-9c63-4e106f9ff188|39=0|54=1|55=PETR4|150=8|151=1|10=019|8=FIX.4.4|9=177|35=8|34=118|49=MARKET|52=20250314-13:29:08.568|56=BLZ001|6=0|14=0|17=f0bf8170-5d39-4d6a-99fa-6655bd100183|37=58269757-ef5b-4e22-9e68-225d007ad93c|39=0|54=1|55=PETR4|150=8|151=1|10=116|8=FIX.4.4|9=177|35=8|34=119|49=MARKET|52=20250314-13:29:08.910|56=BLZ001|6=0|14=0|17=b2878752-ddf5-4d08-8580-735d9b96af2b|37=a4eb1892-6ecc-4653-acee-8465d0423289|39=0|54=1|55=PETR4|150=8|151=1|10=213|8=FIX.4.4|9=177|35=8|34=120|49=MARKET|52=20250314-13:29:09.098|56=BLZ001|6=0|14=0|17=a66fb871-467c-4048-ab7f-cff1fc597538|37=8c4f1dfb-de8d-4820-8d5a-29a51f84b236|39=0|54=1|55=PETR4|150=8|151=1|10=147|8=FIX.4.4|9=177|35=8|34=121|49=MARKET|52=20250314-13:29:09.264|56=BLZ001|6=0|14=0|17=c597fd6f-65f0-4128-b70c-6f72bd7132ab|37=747fe56c-d22f-4b68-b796-e50589c5c089|39=0|54=1|55=PETR4|150=8|151=1|10=006|8=FIX.4.4|9=177|35=8|34=122|49=MARKET|52=20250314-13:29:09.422|56=BLZ001|6=0|14=0|17=ec12741d-389b-447e-a2c6-0a732836a8f0|37=7e2971ba-8f43-4c6c-a349-a7cdc2d4520f|39=0|54=1|55=PETR4|150=8|151=1|10=012|8=FIX.4.4|9=177|35=8|34=123|49=MARKET|52=20250314-13:29:09.578|56=BLZ001|6=0|14=0|17=5fcd3481-e1f2-40d7-9f16-752f81d6a1de|37=2c508d63-0f9b-4d43-98af-d677b5460eba|39=0|54=1|55=PETR4|150=8|151=1|10=089|8=FIX.4.4|9=177|35=8|34=124|49=MARKET|52=20250314-13:29:09.738|56=BLZ001|6=0|14=0|17=c53a4f26-d799-4798-8b87-f975b262296c|37=d3408bf7-6e03-40b9-94f1-ae5550535f18|39=0|54=1|55=PETR4|150=8|151=1|10=040|8=FIX.4.4|9=177|35=8|34=125|49=MARKET|52=20250314-13:29:09.900|56=BLZ001|6=0|14=0|17=408dd9ff-a87a-4337-aef8-bdc9bcbd4ada|37=0c58bfb4-5f27-4f34-a810-c5c1b6a1caf5|39=0|54=1|55=PETR4|150=8|151=1|10=233|8=FIX.4.4|9=177|35=8|34=126|49=MARKET|52=20250314-13:29:10.066|56=BLZ001|6=0|14=0|17=3388f685-c041-4bb1-b6b5-15886f734a3e|37=0182b79a-2fa8-4b94-a31b-266334e08d44|39=0|54=1|55=PETR4|150=8|151=1|10=031|8=FIX.4.4|9=177|35=8|34=127|49=MARKET|52=20250314-13:29:10.234|56=BLZ001|6=0|14=0|17=bd511a01-8c97-4780-b7da-7f2ee27352ca|37=7298ca35-9331-4b69-87a1-4ece4fdde549|39=0|54=1|55=PETR4|150=8|151=1|10=028|8=FIX.4.4|9=177|35=8|34=128|49=MARKET|52=20250314-13:29:10.388|56=BLZ001|6=0|14=0|17=a9cbf10f-6a3a-4e3e-a866-cbb47710107b|37=7936f41d-5895-4c81-be8a-2a7ea02f5ca7|39=0|54=1|55=PETR4|150=8|151=1|10=162|8=FIX.4.4|9=177|35=8|34=129|49=MARKET|52=20250314-13:29:10.538|56=BLZ001|6=0|14=0|17=f98521ca-21d9-44d8-8a7a-d3efd1fff339|37=2109ee12-ba3d-4cd1-bdf5-cbc81e65d496|39=0|54=1|55=PETR4|150=8|151=1|10=060|8=FIX.4.4|9=177|35=8|34=130|49=MARKET|52=20250314-13:29:16.946|56=BLZ001|6=0|14=0|17=1300ed55-28ef-47b1-ac95-ecf9917e618b|37=ad4780c3-603b-4009-9b6f-104281bbdf3f|39=0|54=1|55=PETR4|150=8|151=1|10=019|8=FIX.4.4|9=177|35=8|34=131|49=MARKET|52=20250314-13:29:17.400|56=BLZ001|6=0|14=0|17=163c3d90-c8de-4f8c-88ed-8da315a6ab75|37=9f81efd2-8711-419c-80f3-26be5213cb30|39=0|54=1|55=PETR4|150=8|151=1|10=065|8=FIX.4.4|9=177|35=8|34=132|49=MARKET|52=20250314-13:29:17.591|56=BLZ001|6=0|14=0|17=e9ce55f0-1ad3-4826-b632-8217d74d20ac|37=6682bfb8-e684-4b79-8c63-b08bdef133ae|39=0|54=1|55=PETR4|150=8|151=1|10=080|8=FIX.4.4|9=177|35=8|34=133|49=MARKET|52=20250314-13:29:17.764|56=BLZ001|6=0|14=0|17=28d5176e-6bb2-481a-a331-7b4b55ee036a|37=1e6c11ad-a540-47b3-acfc-84ad0caaaffd|39=0|54=1|55=PETR4|150=8|151=1|10=064|8=FIX.4.4|9=177|35=8|34=134|49=MARKET|52=20250314-13:29:17.954|56=BLZ001|6=0|14=0|17=4d876361-45cb-47f5-8915-c8992dfe7e7e|37=fdc4242a-fc30-4c65-870a-26c90062111d|39=0|54=1|55=PETR4|150=8|151=1|10=156|8=FIX.4.4|9=177|35=8|34=135|49=MARKET|52=20250314-13:29:18.209|56=BLZ001|6=0|14=0|17=1a7475fd-d906-40eb-aec5-c967f5a8c20e|37=8db1dab5-53fa-4ef1-9299-7c972978d18f|39=0|54=1|55=PETR4|150=8|151=1|10=200|8=FIX.4.4|9=177|35=8|34=136|49=MARKET|52=20250314-13:29:18.726|56=BLZ001|6=0|14=0|17=aae6886b-6048-4182-adad-aadef49dc55f|37=21836290-0b73-45fe-99c5-4b7cdfb853b9|39=0|54=1|55=PETR4|150=8|151=1|10=190|8=FIX.4.4|9=177|35=8|34=137|49=MARKET|52=20250314-13:29:18.897|56=BLZ001|6=0|14=0|17=7aa9a9c4-4552-4777-a9d4-2112345d23df|37=ef6efee2-fcb9-4282-a089-f9edccb00607|39=0|54=1|55=PETR4|150=8|151=1|10=145|8=FIX.4.4|9=177|35=8|34=138|49=MARKET|52=20250314-13:29:19.079|56=BLZ001|6=0|14=0|17=f6d35dde-ac2d-496b-8f5e-9edb0df15572|37=0d9163dc-1c96-4342-8e54-9185a9a11e17|39=0|54=1|55=PETR4|150=8|151=1|10=096|8=FIX.4.4|9=177|35=8|34=139|49=MARKET|52=20250314-13:29:19.265|56=BLZ001|6=0|14=0|17=db25d131-b434-4d56-9038-e0ecce28f550|37=f0a9ee19-9980-4a5d-95da-3f8c512ff06b|39=0|54=1|55=PETR4|150=8|151=1|10=083|8=FIX.4.4|9=177|35=8|34=140|49=MARKET|52=20250314-13:29:19.447|56=BLZ001|6=0|14=0|17=e594ee78-b30a-4397-a5f5-9edf6826e31b|37=c9cf77d6-e9e2-4e77-9827-d7c634748294|39=0|54=1|55=PETR4|150=8|151=1|10=252|8=FIX.4.4|9=177|35=8|34=141|49=MARKET|52=20250314-13:29:19.659|56=BLZ001|6=0|14=0|17=dbf91cf1-ec1e-416d-8b59-b6e9414f5b0f|37=7baefc1d-e482-4c0e-afa0-b00b8ebee8e4|39=0|54=1|55=PETR4|150=8|151=1|10=036|8=FIX.4.4|9=177|35=8|34=142|49=MARKET|52=20250314-13:29:22.069|56=BLZ001|6=0|14=0|17=54a78be2-c618-4648-89e3-cbbbf88ebeee|37=a05ae722-eac7-42c7-95fd-89ffbe538836|39=0|54=1|55=PETR4|150=8|151=1|10=045|8=FIX.4.4|9=177|35=8|34=143|49=MARKET|52=20250314-13:29:22.483|56=BLZ001|6=0|14=0|17=210642b8-31f5-4a0f-83d4-66764ba03573|37=b88cdd9b-6870-4742-938f-18496abee92c|39=0|54=1|55=PETR4|150=8|151=1|10=057|